{
  "_format": "hh-sol-artifact-1",
  "contractName": "AIAgent",
  "sourceName": "contracts/AIAgent.sol",
  "abi": [
    {
      "anonymous": false,
      "inputs": [
        {
          "indexed": false,
          "internalType": "string",
          "name": "newMessage",
          "type": "string"
        }
      ],
      "name": "MessageSent",
      "type": "event"
    },
    {
      "anonymous": false,
      "inputs": [
        {
          "indexed": false,
          "internalType": "string",
          "name": "newResponse",
          "type": "string"
        }
      ],
      "name": "ResponseUpdated",
      "type": "event"
    },
    {
      "inputs": [],
      "name": "getMessage",
      "outputs": [
        {
          "internalType": "string",
          "name": "",
          "type": "string"
        }
      ],
      "stateMutability": "view",
      "type": "function"
    },
    {
      "inputs": [],
      "name": "getResponse",
      "outputs": [
        {
          "internalType": "string",
          "name": "",
          "type": "string"
        }
      ],
      "stateMutability": "view",
      "type": "function"
    },
    {
      "inputs": [],
      "name": "message",
      "outputs": [
        {
          "internalType": "string",
          "name": "",
          "type": "string"
        }
      ],
      "stateMutability": "view",
      "type": "function"
    },
    {
      "inputs": [],
      "name": "response",
      "outputs": [
        {
          "internalType": "string",
          "name": "",
          "type": "string"
        }
      ],
      "stateMutability": "view",
      "type": "function"
    },
    {
      "inputs": [
        {
          "internalType": "string",
          "name": "_message",
          "type": "string"
        }
      ],
      "name": "sendMessage",
      "outputs": [],
      "stateMutability": "nonpayable",
      "type": "function"
    },
    {
      "inputs": [
        {
          "internalType": "string",
          "name": "_response",
          "type": "string"
        }
      ],
      "name": "setResponse",
      "outputs": [],
      "stateMutability": "nonpayable",
      "type": "function"
    }
  ],
  "bytecode": "0x608060405234801561001057600080fd5b50610919806100206000396000f3fe608060405234801561001057600080fd5b50600436106100625760003560e01c806318a30d161461006757806324cf44a414610085578063469c8110146100a15780637a7f01a7146100bd578063ce6d41de146100db578063e21f37ce146100f9575b600080fd5b61006f610117565b60405161007c9190610485565b60405180910390f35b61009f600480360381019061009a9190610516565b6101a9565b005b6100bb60048036038101906100b69190610516565b6101f8565b005b6100c5610247565b6040516100d29190610485565b60405180910390f35b6100e36102d5565b6040516100f09190610485565b60405180910390f35b610101610367565b60405161010e9190610485565b60405180910390f35b60606001805461012690610592565b80601f016020809104026020016040519081016040528092919081815260200182805461015290610592565b801561019f5780601f106101745761010080835404028352916020019161019f565b820191906000526020600020905b81548152906001019060200180831161018257829003601f168201915b5050505050905090565b8181600191826101ba9291906107b3565b507f37567db206e047edb16c1a37309e98225a360ac55fe8daa5cbefae45842dd15782826040516101ec9291906108bf565b60405180910390a15050565b8181600091826102099291906107b3565b507fbdc68c10503e06bda29a088fc440065f6f48d934e35de224cfd493a67ca3127b828260405161023b9291906108bf565b60405180910390a15050565b6001805461025490610592565b80601f016020809104026020016040519081016040528092919081815260200182805461028090610592565b80156102cd5780601f106102a2576101008083540402835291602001916102cd565b820191906000526020600020905b8154815290600101906020018083116102b057829003601f168201915b505050505081565b6060600080546102e490610592565b80601f016020809104026020016040519081016040528092919081815260200182805461031090610592565b801561035d5780601f106103325761010080835404028352916020019161035d565b820191906000526020600020905b81548152906001019060200180831161034057829003601f168201915b5050505050905090565b6000805461037490610592565b80601f01602080910402602001604051908101604052809291908181526020018280546103a090610592565b80156103ed5780601f106103c2576101008083540402835291602001916103ed565b820191906000526020600020905b8154815290600101906020018083116103d057829003601f168201915b505050505081565b600081519050919050565b600082825260208201905092915050565b60005b8381101561042f578082015181840152602081019050610414565b60008484015250505050565b6000601f19601f8301169050919050565b6000610457826103f5565b6104618185610400565b9350610471818560208601610411565b61047a8161043b565b840191505092915050565b6000602082019050818103600083015261049f818461044c565b905092915050565b600080fd5b600080fd5b600080fd5b600080fd5b600080fd5b60008083601f8401126104d6576104d56104b1565b5b8235905067ffffffffffffffff8111156104f3576104f26104b6565b5b60208301915083600182028301111561050f5761050e6104bb565b5b9250929050565b6000806020838503121561052d5761052c6104a7565b5b600083013567ffffffffffffffff81111561054b5761054a6104ac565b5b610557858286016104c0565b92509250509250929050565b7f4e487b7100000000000000000000000000000000000000000000000000000000600052602260045260246000fd5b600060028204905060018216806105aa57607f821691505b6020821081036105bd576105bc610563565b5b50919050565b600082905092915050565b7f4e487b7100000000000000000000000000000000000000000000000000000000600052604160045260246000fd5b60008190508160005260206000209050919050565b60006020601f8301049050919050565b600082821b905092915050565b60006008830261065f7fffffffffffffffffffffffffffffffffffffffffffffffffffffffffffffffff82610622565b6106698683610622565b95508019841693508086168417925050509392505050565b6000819050919050565b6000819050919050565b60006106b06106ab6106a684610681565b61068b565b610681565b9050919050565b6000819050919050565b6106ca83610695565b6106de6106d6826106b7565b84845461062f565b825550505050565b600090565b6106f36106e6565b6106fe8184846106c1565b505050565b5b81811015610722576107176000826106eb565b600181019050610704565b5050565b601f82111561076757610738816105fd565b61074184610612565b81016020851015610750578190505b61076461075c85610612565b830182610703565b50505b505050565b600082821c905092915050565b600061078a6000198460080261076c565b1980831691505092915050565b60006107a38383610779565b9150826002028217905092915050565b6107bd83836105c3565b67ffffffffffffffff8111156107d6576107d56105ce565b5b6107e08254610592565b6107eb828285610726565b6000601f83116001811461081a5760008415610808578287013590505b6108128582610797565b86555061087a565b601f198416610828866105fd565b60005b828110156108505784890135825560018201915060208501945060208101905061082b565b8683101561086d5784890135610869601f891682610779565b8355505b6001600288020188555050505b50505050505050565b82818337600083830152505050565b600061089e8385610400565b93506108ab838584610883565b6108b48361043b565b840190509392505050565b600060208201905081810360008301526108da818486610892565b9050939250505056fea264697066735822122006eab61344779b34bcd7b0410c83afe0836f742cadc8f8e5a32b92032c63d29664736f6c63430008130033",
  "linkReferences": {},
  "deployedLinkReferences": {}
}